{
  "_format": "hh-sol-artifact-1",
  "contractName": "WavePortal",
  "sourceName": "contracts/WavePortal.sol",
  "abi": [
    {
      "inputs": [],
      "stateMutability": "nonpayable",
      "type": "constructor"
    },
    {
      "anonymous": false,
      "inputs": [
        {
          "indexed": true,
          "internalType": "address",
          "name": "from",
          "type": "address"
        },
        {
          "indexed": false,
          "internalType": "uint256",
          "name": "timestamp",
          "type": "uint256"
        },
        {
          "indexed": false,
          "internalType": "string",
          "name": "message",
          "type": "string"
        }
      ],
      "name": "NewWave",
      "type": "event"
    },
    {
      "inputs": [],
      "name": "getAllWaves",
      "outputs": [
        {
          "components": [
            {
              "internalType": "address",
              "name": "waver",
              "type": "address"
            },
            {
              "internalType": "string",
              "name": "message",
              "type": "string"
            },
            {
              "internalType": "uint256",
              "name": "timestamp",
              "type": "uint256"
            }
          ],
          "internalType": "struct WavePortal.Wave[]",
          "name": "",
          "type": "tuple[]"
        }
      ],
      "stateMutability": "view",
      "type": "function"
    },
    {
      "inputs": [],
      "name": "getTotalShakas",
      "outputs": [
        {
          "internalType": "uint256",
          "name": "",
          "type": "uint256"
        }
      ],
      "stateMutability": "view",
      "type": "function"
    },
    {
      "inputs": [],
      "name": "getTotalWaves",
      "outputs": [
        {
          "internalType": "uint256",
          "name": "",
          "type": "uint256"
        }
      ],
      "stateMutability": "view",
      "type": "function"
    },
    {
      "inputs": [],
      "name": "shaka",
      "outputs": [],
      "stateMutability": "nonpayable",
      "type": "function"
    },
    {
      "inputs": [
        {
          "internalType": "string",
          "name": "_message",
          "type": "string"
        }
      ],
      "name": "wave",
      "outputs": [],
      "stateMutability": "nonpayable",
      "type": "function"
    }
  ],
  "bytecode": "0x60806040523480156200001157600080fd5b506200005d6040518060400160405280601e81526020017f596f20796f2c2049276d206120736d61727469736820636f6e747261637400008152506200006360201b620004ad1760201c565b620001f7565b62000103816040516024016200007a919062000170565b6040516020818303038152906040527f41304fac000000000000000000000000000000000000000000000000000000007bffffffffffffffffffffffffffffffffffffffffffffffffffffffff19166020820180517bffffffffffffffffffffffffffffffffffffffffffffffffffffffff83818316178352505050506200010660201b60201c565b50565b60008151905060006a636f6e736f6c652e6c6f679050602083016000808483855afa5050505050565b60006200013c8262000194565b6200014881856200019f565b93506200015a818560208601620001b0565b6200016581620001e6565b840191505092915050565b600060208201905081810360008301526200018c81846200012f565b905092915050565b600081519050919050565b600082825260208201905092915050565b60005b83811015620001d0578082015181840152602081019050620001b3565b83811115620001e0576000848401525b50505050565b6000601f19601f8301169050919050565b610d0a80620002076000396000f3fe608060405234801561001057600080fd5b50600436106100575760003560e01c8063449d46c01461005c5780635f61c3c1146100785780639a2cdc0814610082578063bd43a908146100a0578063e5fcf26f146100be575b600080fd5b610076600480360381019061007191906107b2565b6100dc565b005b610080610253565b005b61008a6102c6565b6040516100979190610a1e565b60405180910390f35b6100a8610311565b6040516100b5919061097a565b60405180910390f35b6100c6610462565b6040516100d39190610a1e565b60405180910390f35b60016000808282546100ee9190610b30565b925050819055506101346040518060400160405280600981526020017f257320776176656421000000000000000000000000000000000000000000000081525033610546565b600260405180606001604052803373ffffffffffffffffffffffffffffffffffffffff16815260200183815260200142815250908060018154018082558091505060019003906000526020600020906003020160009091909190915060008201518160000160006101000a81548173ffffffffffffffffffffffffffffffffffffffff021916908373ffffffffffffffffffffffffffffffffffffffff16021790555060208201518160010190805190602001906101f39291906106a7565b506040820151816002015550503373ffffffffffffffffffffffffffffffffffffffff167f5f7e16dc676677766a70e9c5628aa6c54ddb8b6e5188e2ae1e1f17f1ffbea7164283604051610248929190610a39565b60405180910390a250565b60016000808282546102659190610b30565b92505081905550600180600082825461027e9190610b30565b925050819055506102c46040518060400160405280600e81526020017f2573207368616b6120627275682100000000000000000000000000000000000081525033610546565b565b60006103096040518060400160405280601781526020017f5765206861766520256420746f74616c207761766573210000000000000000008152506000546105e2565b600054905090565b60606002805480602002602001604051908101604052809291908181526020016000905b8282101561045957838290600052602060002090600302016040518060600160405290816000820160009054906101000a900473ffffffffffffffffffffffffffffffffffffffff1673ffffffffffffffffffffffffffffffffffffffff1673ffffffffffffffffffffffffffffffffffffffff1681526020016001820180546103be90610c04565b80601f01602080910402602001604051908101604052809291908181526020018280546103ea90610c04565b80156104375780601f1061040c57610100808354040283529160200191610437565b820191906000526020600020905b81548152906001019060200180831161041a57829003601f168201915b5050505050815260200160028201548152505081526020019060010190610335565b50505050905090565b60006104a56040518060400160405280601881526020017f5765206861766520256420746f74616c207368616b61732100000000000000008152506001546105e2565b600154905090565b610543816040516024016104c1919061099c565b6040516020818303038152906040527f41304fac000000000000000000000000000000000000000000000000000000007bffffffffffffffffffffffffffffffffffffffffffffffffffffffff19166020820180517bffffffffffffffffffffffffffffffffffffffffffffffffffffffff838183161783525050505061067e565b50565b6105de828260405160240161055c9291906109be565b6040516020818303038152906040527f319af333000000000000000000000000000000000000000000000000000000007bffffffffffffffffffffffffffffffffffffffffffffffffffffffff19166020820180517bffffffffffffffffffffffffffffffffffffffffffffffffffffffff838183161783525050505061067e565b5050565b61067a82826040516024016105f89291906109ee565b6040516020818303038152906040527f9710a9d0000000000000000000000000000000000000000000000000000000007bffffffffffffffffffffffffffffffffffffffffffffffffffffffff19166020820180517bffffffffffffffffffffffffffffffffffffffffffffffffffffffff838183161783525050505061067e565b5050565b60008151905060006a636f6e736f6c652e6c6f679050602083016000808483855afa5050505050565b8280546106b390610c04565b90600052602060002090601f0160209004810192826106d5576000855561071c565b82601f106106ee57805160ff191683800117855561071c565b8280016001018555821561071c579182015b8281111561071b578251825591602001919060010190610700565b5b509050610729919061072d565b5090565b5b8082111561074657600081600090555060010161072e565b5090565b600061075d61075884610a9a565b610a69565b90508281526020810184848401111561077557600080fd5b610780848285610bc2565b509392505050565b600082601f83011261079957600080fd5b81356107a984826020860161074a565b91505092915050565b6000602082840312156107c457600080fd5b600082013567ffffffffffffffff8111156107de57600080fd5b6107ea84828501610788565b91505092915050565b60006107ff838361090c565b905092915050565b61081081610b86565b82525050565b61081f81610b86565b82525050565b600061083082610ada565b61083a8185610afd565b93508360208202850161084c85610aca565b8060005b85811015610888578484038952815161086985826107f3565b945061087483610af0565b925060208a01995050600181019050610850565b50829750879550505050505092915050565b60006108a582610ae5565b6108af8185610b0e565b93506108bf818560208601610bd1565b6108c881610cc3565b840191505092915050565b60006108de82610ae5565b6108e88185610b1f565b93506108f8818560208601610bd1565b61090181610cc3565b840191505092915050565b60006060830160008301516109246000860182610807565b506020830151848203602086015261093c828261089a565b9150506040830151610951604086018261095c565b508091505092915050565b61096581610bb8565b82525050565b61097481610bb8565b82525050565b600060208201905081810360008301526109948184610825565b905092915050565b600060208201905081810360008301526109b681846108d3565b905092915050565b600060408201905081810360008301526109d881856108d3565b90506109e76020830184610816565b9392505050565b60006040820190508181036000830152610a0881856108d3565b9050610a17602083018461096b565b9392505050565b6000602082019050610a33600083018461096b565b92915050565b6000604082019050610a4e600083018561096b565b8181036020830152610a6081846108d3565b90509392505050565b6000604051905081810181811067ffffffffffffffff82111715610a9057610a8f610c94565b5b8060405250919050565b600067ffffffffffffffff821115610ab557610ab4610c94565b5b601f19601f8301169050602081019050919050565b6000819050602082019050919050565b600081519050919050565b600081519050919050565b6000602082019050919050565b600082825260208201905092915050565b600082825260208201905092915050565b600082825260208201905092915050565b6000610b3b82610bb8565b9150610b4683610bb8565b9250827fffffffffffffffffffffffffffffffffffffffffffffffffffffffffffffffff03821115610b7b57610b7a610c36565b5b828201905092915050565b6000610b9182610b98565b9050919050565b600073ffffffffffffffffffffffffffffffffffffffff82169050919050565b6000819050919050565b82818337600083830152505050565b60005b83811015610bef578082015181840152602081019050610bd4565b83811115610bfe576000848401525b50505050565b60006002820490506001821680610c1c57607f821691505b60208210811415610c3057610c2f610c65565b5b50919050565b7f4e487b7100000000000000000000000000000000000000000000000000000000600052601160045260246000fd5b7f4e487b7100000000000000000000000000000000000000000000000000000000600052602260045260246000fd5b7f4e487b7100000000000000000000000000000000000000000000000000000000600052604160045260246000fd5b6000601f19601f830116905091905056fea2646970667358221220c3155b4e6ce927e749a40873d1892e16f46ee35a9ddcf946b30ac46805a1324d64736f6c63430008000033",
  "linkReferences": {},
  "deployedLinkReferences": {}
}