{
  "_format": "hh-sol-artifact-1",
  "contractName": "WavePortal",
  "sourceName": "contracts/WavePortal.sol",
  "abi": [
    {
      "inputs": [],
      "stateMutability": "nonpayable",
      "type": "constructor"
    },
    {
      "inputs": [],
      "name": "getTotalShakas",
      "outputs": [
        {
          "internalType": "uint256",
          "name": "",
          "type": "uint256"
        }
      ],
      "stateMutability": "view",
      "type": "function"
    },
    {
      "inputs": [],
      "name": "getTotalWaves",
      "outputs": [
        {
          "internalType": "uint256",
          "name": "",
          "type": "uint256"
        }
      ],
      "stateMutability": "view",
      "type": "function"
    },
    {
      "inputs": [],
      "name": "shaka",
      "outputs": [],
      "stateMutability": "nonpayable",
      "type": "function"
    },
    {
      "inputs": [],
      "name": "wave",
      "outputs": [],
      "stateMutability": "nonpayable",
      "type": "function"
    }
  ],
  "bytecode": "0x608060405234801561001057600080fd5b506100596040518060400160405280601e81526020017f596f20796f2c2049276d206120736d61727469736820636f6e7472616374000081525061005e60201b6102041760201c565b6101e1565b6100fa81604051602401610072919061015f565b6040516020818303038152906040527f41304fac000000000000000000000000000000000000000000000000000000007bffffffffffffffffffffffffffffffffffffffffffffffffffffffff19166020820180517bffffffffffffffffffffffffffffffffffffffffffffffffffffffff83818316178352505050506100fd60201b60201c565b50565b60008151905060006a636f6e736f6c652e6c6f679050602083016000808483855afa5050505050565b600061013182610181565b61013b818561018c565b935061014b81856020860161019d565b610154816101d0565b840191505092915050565b600060208201905081810360008301526101798184610126565b905092915050565b600081519050919050565b600082825260208201905092915050565b60005b838110156101bb5780820151818401526020810190506101a0565b838111156101ca576000848401525b50505050565b6000601f19601f8301169050919050565b610649806101f06000396000f3fe608060405234801561001057600080fd5b506004361061004c5760003560e01c80635f61c3c1146100515780636fe15b441461005b5780639a2cdc0814610065578063e5fcf26f14610083575b600080fd5b6100596100a1565b005b610063610114565b005b61006d61016e565b60405161007a91906104d7565b60405180910390f35b61008b6101b9565b60405161009891906104d7565b60405180910390f35b60016000808282546100b3919061050e565b9250508190555060018060008282546100cc919061050e565b925050819055506101126040518060400160405280600e81526020017f2573207368616b612062727568210000000000000000000000000000000000008152503361029d565b565b6001600080828254610126919061050e565b9250508190555061016c6040518060400160405280600981526020017f25732077617665642100000000000000000000000000000000000000000000008152503361029d565b565b60006101b16040518060400160405280601781526020017f5765206861766520256420746f74616c20776176657321000000000000000000815250600054610339565b600054905090565b60006101fc6040518060400160405280601881526020017f5765206861766520256420746f74616c207368616b6173210000000000000000815250600154610339565b600154905090565b61029a816040516024016102189190610455565b6040516020818303038152906040527f41304fac000000000000000000000000000000000000000000000000000000007bffffffffffffffffffffffffffffffffffffffffffffffffffffffff19166020820180517bffffffffffffffffffffffffffffffffffffffffffffffffffffffff83818316178352505050506103d5565b50565b61033582826040516024016102b3929190610477565b6040516020818303038152906040527f319af333000000000000000000000000000000000000000000000000000000007bffffffffffffffffffffffffffffffffffffffffffffffffffffffff19166020820180517bffffffffffffffffffffffffffffffffffffffffffffffffffffffff83818316178352505050506103d5565b5050565b6103d1828260405160240161034f9291906104a7565b6040516020818303038152906040527f9710a9d0000000000000000000000000000000000000000000000000000000007bffffffffffffffffffffffffffffffffffffffffffffffffffffffff19166020820180517bffffffffffffffffffffffffffffffffffffffffffffffffffffffff83818316178352505050506103d5565b5050565b60008151905060006a636f6e736f6c652e6c6f679050602083016000808483855afa5050505050565b61040781610564565b82525050565b6000610418826104f2565b61042281856104fd565b93506104328185602086016105a0565b61043b81610602565b840191505092915050565b61044f81610596565b82525050565b6000602082019050818103600083015261046f818461040d565b905092915050565b60006040820190508181036000830152610491818561040d565b90506104a060208301846103fe565b9392505050565b600060408201905081810360008301526104c1818561040d565b90506104d06020830184610446565b9392505050565b60006020820190506104ec6000830184610446565b92915050565b600081519050919050565b600082825260208201905092915050565b600061051982610596565b915061052483610596565b9250827fffffffffffffffffffffffffffffffffffffffffffffffffffffffffffffffff03821115610559576105586105d3565b5b828201905092915050565b600061056f82610576565b9050919050565b600073ffffffffffffffffffffffffffffffffffffffff82169050919050565b6000819050919050565b60005b838110156105be5780820151818401526020810190506105a3565b838111156105cd576000848401525b50505050565b7f4e487b7100000000000000000000000000000000000000000000000000000000600052601160045260246000fd5b6000601f19601f830116905091905056fea26469706673582212207a0a73b05761ddfddfeb75115607d25c5867f9c9c22835d0e73814a31c5fce9d64736f6c63430008000033",
  "linkReferences": {},
  "deployedLinkReferences": {}
}